:020000040000FA
:10000000D81F00205501000075250000AD24000018
:1000100071250000251B0000933400000000000043
:10002000000000000000000000000000032C0000A1
:10003000C11F000000000000552A0000B92E00007A
:100040006F0100006F0100006F0100006F010000F0
:100050006F0100006F0100006F0100006F010000E0
:100060006F0100006F0100006F0100006F010000D0
:100070006F0100006F0100006F0100006F010000C0
:100080006F0100006F0100006F0100006F010000B0
:100090006F0100006F0100006F0100006F010000A0
:1000A0006F0100006F010000000000006F01000000
:1000B0006F0100006F0100006F0100006F01000080
:1000C0006F0100006F0100006F0100006F01000070
:1000D0006F010000000000000000000000000000B0
:1000E00000000000811900006F0100006F01000096
:1000F0006F0100006F0100006F0100006F01000040
:100100009D320000652F0000953000006F01000057
:100110006F0100006F010000000000006F0100008F
:100120006F0100006F0100006F0100006F0100000F
:100130006F0100006F0100006F010000000000006F
:1001400000000000000000000000000000000000AF
:100150006F0100000648804706480047FEE7FEE7BB
:10016000FEE7FEE7FEE7FEE7FEE7FEE7FEE7FEE767
:10017000D12E000079010000DFF80CD000F060FD06
:1001800000480047F13F0000D81F0020D2B201E034
:1001900000F8012B491EFBD270470022F6E710B58C
:1001A00013460A4604461946FFF7F0FF204610BDE5
:1001B000421E12F8013F002BFBD111F8013B02F85F
:1001C000013B002BF9D1704730B505462A460B4656
:1001D00012F8010B13F8014B08B1A042F8D01CB182
:1001E000002802D06D1CF1E7284630BD10B504464A
:1001F00004E00B7800F8013B03B1491C521EF8D211
:10020000204610BD421C10F8011B0029FBD1801AAA
:10021000704700000FB400B58DB010A909900B9085
:1002200000914FF0FF300A9000200C900548069096
:10023000054807906A4609A80F9900F0C3FB0DB066
:100240005DF814FBE1090000FF0900002DE9FF5FE4
:10025000D2E901A74FF00008916999461446DDF8EC
:1002600038B0464601988847054659EA0B0005D044
:1002700009E0A169761C019888470546216A28464D
:1002800088470028F5D1681C03D05FEACA7005D002
:1002900015E04FF0FF3004B0BDE8F09F2068011D6D
:1002A0002160D0F800800AE05FEACA7001D108F846
:1002B000015B7F1EA169761C019888470546002FC7
:1002C0001ADD681C18D0B9F1000F0DD0E81705EB46
:1002D000D060421120F01F0059F822102A1A012084
:1002E00090400142E0D107E0BBF1000FDCD1216A70
:1002F000284688470028D7D0E169019888470AF046
:10030000010050EA0B0002D1002188F80010A0681B
:10031000B84203DDBBF1000F03D017B16FF001004D
:10032000B9E73046B7E7F0B480EA0102D40F4200E3
:10033000B2EB410F02D20246084611464A0042D0B3
:10034000C30DDDB2C1F3C752AD1A202D35DAC1F3AA
:10035000160141F4000204B15242C5F1200602FA2E
:1003600006F12A411044B3EBD05F23D0C4B1012D74
:10037000A0EBC35009DCF0BC4FF0004202EAC352CC
:1003800000F50000DBB200F0A2BB400000F180707D
:1003900000EBC350A0F1807040EAD170490009E041
:1003A000490841EAC071A0EBC35000F500004008C5
:1003B00000EBC350F0BC00F081BB6142012202EBB4
:1003C0004101001BF6E7F0BC704781F00041AAE74D
:1003D00080F00040A7E780EA010210B502F0004378
:1003E000400026D04A0023D04FEA106101EB126191
:1003F000C0F35600C2F3560240F4000042F400027B
:10040000A0FB0220A1F17F014FEA0040140401D0BB
:1004100000F1010050EA124001D44000491EC2B26E
:100420000C0604EBD010401C4008802A02D003E0E8
:10043000002010BD20F00100002900DA0020184340
:1004400010BD30B480EA010202F0004530F00042F5
:1004500021F0004015D0A0B1C0F3C753C2F3C75478
:10046000C2F31601C0F31600E41A41F4000140F48F
:1004700000027D34914201D3641C00E04900002C4D
:1004800002DA30BC002070474FF400000023914294
:1004900001D3891A034340084FEA4101F7D151B112
:1004A000914202D14FF0004105E002D24FF001012C
:1004B00001E06FF0010103EBC450284430BC00F0B0
:1004C000FDBA2DE9FE4F804681EA0300C00F0C46BD
:1004D000009021F0004123F00045B8EB0200A94153
:1004E00005D24046214690461C460B46024623F064
:1004F0000040104304D14046214603B0BDE8F08FD0
:10050000270DC7F30A00C3F30A510290401A019065
:10051000402866DAC3F3130040F4801B009892462B
:1005200020B10023D2EB030A63EB0B0B0198594671
:10053000C0F14002504600F00DFA06460D46504606
:100540005946019A00F025FA10EB08006141002499
:1005500087EA115284EAE7731A433BD0009A3AB310
:10056000019A012A4FEA075210DC001B61EB0201DD
:100570004FF0004202EA0752CDE90042001C41F56B
:10058000801132462B4600F0DCFAB6E7001B61EB27
:100590000201001C41F5801300185B412018A2F5F0
:1005A000001747EB030140EAD570B6196D4111E021
:1005B0006D084FEA360645EAC0754FEA0752001B40
:1005C00061EB0201001C41F5801149084FEA30003F
:1005D0000019514132462B4603B0BDE8F04F00F000
:1005E000A3BA0098012240000023D0EB020263EB83
:1005F000E073009821464FEAE074B8EB000061EB2D
:100600000401E9E783F000435BE781F0004158E72C
:100610002DE9FE4F81EA030404F0004421F000417B
:1006200000944FF0000B23F0004350EA010402D085
:1006300052EA030404D10020014603B0BDE8F08F64
:10064000C3F30A54C1F30A552C44A4F2F3340194C1
:10065000A0FB0254C1F3130141F48011C3F313034F
:1006600043F4801301FB024400FB034E840A970A03
:1006700044EA815447EA8357A4FB076802958D0A30
:1006800005FB07854FEA932C04FB0C542705029DBC
:100690004FEA065847EA1637B5EB08056EEB070C2C
:1006A000870E920E47EA811742EA8312A7FB0201E6
:1006B000B6EB0B0164EB00042B0D43EA0C335E1820
:1006C00044EB1C50DA465146E7FB0201C5F3130424
:1006D0004FEA0B3343EA14534FEA0432019C43EAD6
:1006E0000603A4F10C040294009CCDE900B400F0D0
:1006F00028FAA2E72DE9F04D81EA030404F0004B4B
:1007000021F0004514464FF0000A23F0004150EA62
:10071000050220D054EA01021DD0C5F30A57024653
:10072000C5F31303C1F31300C1F30A5640F4801557
:1007300043F48013A7EB0608101BD64608F2FD38D9
:1007400073EB050002D308F1010801E092185B4148
:10075000B8F1000F03DA00200146BDE8F08D00205B
:100760004FF48011064684460EE0171B73EB050715
:1007700005D3121B63EB050306434CEA010C490841
:100780004FEA300092185B4150EA0107EDD152EA7E
:10079000030012D082EA040083EA0501084303D172
:1007A00000224FF0004308E0101BAB4102D20122AF
:1007B000002302E06FF0010253101AEB06004CEB2D
:1007C000085110EB0A0041EB0B01BDE8F04D00F0C1
:1007D000ABB9C10F80EAE0700844CA079623002134
:1007E00000F075B996230022114600F070B90EB5DD
:1007F000C10F80EAE0700844CA07002140F2334389
:100800008DE80E000A460B4600F09BF903B000BDD0
:100810000EB540F2334102910021CDE900110A46A4
:100820000B4600F08EF903B000BD70B5C1F30A525B
:1008300001F000450024C1F3130140F2FF3341F4FD
:1008400080119A4201DA002070BD40F233439A428F
:10085000A2F2334203DC524200F08BF800E09040F9
:100860002C43F1D0404270BD00F0004230F0004017
:100870000AD0C10D01F56071C0F3160042EA0151C2
:10088000C20840071143704700200146704701F03D
:10089000004330B421F0004150EA010206D00A0DB5
:1008A000A2F56072C1F31301002A02DC30BC002003
:1008B0007047440F44EAC104C100E01830BC00EBAB
:1008C000C25000F0FBB830B50B4601460020202294
:1008D000012409E021FA02F59D4205D303FA02F54D
:1008E000491B04FA02F52844151EA2F10102F1DCAD
:1008F00030BD2DE9F05F0546002092469B468846B4
:100900000646814640241BE028464146474622468B
:1009100000F02FF853465A46C01A914110D31146A1
:100920001846224600F016F82D1A67EB01084F46CC
:1009300022460120002100F00DF817EB00094E417E
:10094000201EA4F10104DFDC484631462A46434616
:10095000BDE8F09F202A04DB203A00FA02F10020D3
:1009600070479140C2F1200320FA03F319439040ED
:100970007047202A04DB203A21FA02F00021704758
:1009800021FA02F3D040C2F12002914008431946F7
:100990007047202A06DBCB17203A41FA02F043EADF
:1009A000E07306E041FA02F3D040C2F12002914028
:1009B000084319467047000002681144137801602B
:1009C00018467047D1600449516104491162002101
:1009D0001161114600F04CB9B9090000650C000026
:1009E000426842B1016811F8013B23B1521EC0E9CF
:1009F0000012184670470121C160881E7047426886
:100A00005AB1C368016843B983688B4205D0491E57
:100A1000521CC0E90012002070474FF0FF307047B1
:100A20000FB4002300B589B00CA900910B996FF0A9
:100A30000042CB601E4B06931E4B07930423CDE967
:100A400001321D4A089202466B46002000F026FB48
:100A500009B05DF814FB70B586B006464FF0FF3064
:100A60000091CDE90101002015460C460490324664
:100A7000694604A8FFF7D4FF03460498211825B15E
:100A800008B10A4600E022462A6000280DD0002B5B
:100A900002DD0098884208D0081B0094CDE90104CB
:100AA0003246694604A8FFF7BBFF06B070BD0000E0
:100AB000E1090000FF090000650C00000029A8BF43
:100AC0007047401C490008BF20F00100704710B477
:100AD000B0FA80FC00FA0CF050EA010404BF10BC2C
:100AE000704749B1CCF1200421FA04F411FA0CF159
:100AF00018BF012121430843A3EB0C01CB1D0106C4
:100B0000000A002BBEBF002010BC704700EBC35092
:100B100010440029A4BF10BC7047401C490008BF06
:100B200020F0010010BC704710B5002B08DA401C03
:100B300041F1000192185B411A4301D120F00100FC
:100B400010BD2DE9F04D92469B4611B1B1FA81F2EC
:100B500002E0B0FA80F220329046FFF7FBFE044636
:100B60000F4640EA0A0041EA0B0153465A46084341
:100B700003D120463946BDE8F08D114653EA010005
:100B800015D0C8F140025046FFF7F3FE05460E4669
:100B9000504659464246FFF7DDFE084301D001208A
:100BA00000E00020054346EAE0762C4337430A98EC
:100BB0004FEA4453A0EB08004FEAD4240A304FF028
:100BC000000244EA47544FEAD72502D500200146E7
:100BD000D1E7010510196941DDE9084500196941AE
:100BE000BDE8F04DA0E7C1F30A52C1F3130140F292
:100BF000FF3341F480119A4202DA00200146704727
:100C000040F233439A42A2F2334202DC5242FFF7EF
:100C1000B0BEFFF79FBE000030B5002904DB4FF0E7
:100C20000044404264EB0101002B04DB4FF0004420
:100C3000524264EB0303994208BF904230BD00006A
:100C4000064C074D06E0E06840F0010394E8070019
:100C500098471034AC42F6D3FFF792FAB045000043
:100C6000D0450000C0B24FF4F05100F035BB000099
:100C70002DE9F34F8BB04FF0000801F10C000C464A
:100C80004FF0010B46460DF1080A019062690121FF
:100C90000198904705002DD0252D2CD0216A88473A
:100CA000C0B16269012101989047216A88470028F4
:100CB000F7D1411E62690198904700E0761CA16956
:100CC0000B988847216A88470028F7D1E1690B987B
:100CD0008847DBE7A1690B9888470746A84201D1FE
:100CE000761CD3E7E1690B9888477F1C02D1B8F1E5
:100CF000000F6FD045E1002762693D4639460198F3
:100D000090472A2804D16269012101989047012562
:100D1000DFF884926269012101989047A0F13001C7
:100D20000A290AD24F45E5DC07EB870100EB4107B2
:100D3000303FDFD445F01005ECE7E90601D46FF051
:100D400000476C280AD04C2814D0682815D06A288F
:100D50000DD074281CD07A281AD01DE062690121B8
:100D6000019890476C2802D045F0040514E045F046
:100D700002050DE045F020050AE0626901210198B5
:100D80009047682802D045F0080505E045F4006565
:100D90006269012101989047C4E9015765283DD057
:100DA00019DC582879D00CDC452837D004DC2528FC
:100DB00026D0412831D131E046282FD047282CD1E8
:100DC0002CE05B287FD0612828D063287BD0642862
:100DD00023D159E0CFE06F2847D008DC66281DD02A
:100DE00067281BD0692821D06E2816D127E07028EB
:100DF00044D0732867D0752846D078280DD14CE0B0
:100E0000A1690B988847054625283FF469AFE16939
:100E10000B9888476D1C3FF46AAFB2E023466A46E0
:100E20006FF001000B9900F039F99DE045F04000AA
:100E30006060A80723464FF0000235D43DE02068EB
:100E400000F1040121600068290501D506701DE745
:100E5000290701D5068019E7A90704D54FEAE671ED
:100E6000C0E9006112E7066010E745F040006060ED
:100E7000A80723464FF0080216D41EE040F60E01E4
:100E800025EA0100606016E045F040006060A807B8
:100E900023464FF00A0207D40FE045F0400060609F
:100EA000A80708D5234610226FF001000B99AFF375
:100EB000008059E007E0234610226FF001000B99F3
:100EC000AFF3008050E04FF000094F464B466328D7
:100ED00002D05B2806D040E0E80601D40120A060E3
:100EE00001273AE062690121019890475E2805D107
:100EF0004FF001096269494601989047216939B963
:100F000000210B46524642F82130491C0829FADBE1
:100F1000B0B3216969B9C11700EBD1614B110AEB7C
:100F2000830221F01F01411A012013688840034306
:100F3000136062690121019890475D28E8D1B9F1F9
:100F4000000F09D00020514651F82020D24341F82B
:100F50002020401C0828F7DB02AB224600976FF0E8
:100F600001000B99FFF772F900280CDA401C08D138
:100F7000BBF1000F05D04FF0FF300DB0BDE8F08F92
:100F8000FFE74046F9E7E90701D108F10108064407
:100F90004FF0000B7AE60000CCCCCC0C2DE9FF4FD3
:100FA000087881B09946FF2805D0491C2D2804D027
:100FB0000024002308E000230BE00124F9E703EB01
:100FC000830300EB4303491C0878FF28F7D104B1E1
:100FD0005B4200200090147801462D2C01D02B2C70
:100FE00004D1521C2D2C12D0002400940025167818
:100FF000FF2E0ED00A24A0FB04C801FB04810027A9
:1010000000FB0711521C16EB0C006941EFE70124AD
:10101000EBE7994450EA010206D101980021C0E9AA
:10102000001105B0BDE8F08F0024A84D2646DFF87A
:10103000A08200F065F982468B46B9F1000002DA21
:10104000C9F1000714E0074612E0F80707D022466E
:101050002B4630464146FFF7DBFA064688462246D5
:101060002B4610461946FFF7D3FA04460D467F106B
:10107000002FEAD1B9F1000F324643465046594697
:1010800002DAFFF737FB01E0FFF7C2FA009A0AB174
:1010900081F00041019AC2E90001C2E72DE9FF4F4A
:1010A0001F468DB0D7E901464FF0FF382E20454648
:1010B0004FF000090B90B9696D1C0E988847396A8A
:1010C000824688470028F6D11AF101000AD024F49C
:1010D000D064002E12DDBAF12B0F08D0BAF12D0F1B
:1010E0000CD102E0404611B09CE744F48064B96939
:1010F0006D1C0E9888478246A6F101066946600578
:1011000001D52D2000E02B208DF8000001F1010B0E
:101110000DF1200809E0B9696D1C0E9888478246D8
:101120000F98761E44F400740560002E02DDBAF1BB
:10113000300FF0D00B998A453ED144F0800406E090
:101140000F99681CA9F1010944F400740860761E27
:10115000B9696D1C0E98884782463028F0D02BE084
:101160000B998A4505D1200603D444F08004761EED
:1011700018E0504602F01AFB08B3761E0DF1130179
:1011800044F400748B4508D2AAF130000BF8010B2F
:10119000200607D5A9F1010003E0200602D409F1D9
:1011A00001008146A00502D50F99681C0860B96945
:1011B0006D1C0E9888478246002ED1DC54E0002E2C
:1011C00052DDBAF1650F02D0BAF1450F4CD1A0053E
:1011D0004AD5761EB96924F440746D1C0E98884770
:1011E0008246002E0DDD2B2804D0BAF12D0F08D138
:1011F00044F48074B9696D1C0E9888478246A6F144
:101200000106E00501D52D2100E02B2108F8011B86
:10121000CDF82C8021E0761E0DF1290144F40074F4
:1012200088450CD2AAF1300010F0FF0088F80000C9
:1012300002D10B99884509D908F1010806E0E005BB
:1012400001D5244801E042F20F708146B9696D1C56
:101250000E98884782460F980560002E04DD5046A0
:1012600002F0A4FA0028D6D1F9690E988847FF2029
:101270008BF8000088F800000020069007904B468D
:101280006A4608A906A8FFF789FEA00502D46FF0F8
:10129000010028E714F0240F0AD0E00714D1DDE99B
:1012A00006123868031D3B600068C0E900120BE0BD
:1012B000DDE90601FFF7EBFA0146E00704D13868E3
:1012C000021D3A600068016028460CE700002440D7
:1012D0000000F03FF1D8FFFF7F2801D9002208E08D
:1012E000064A02EB5002C007127800D1120902F040
:1012F0000F02012090400840704700007045000038
:101300000EB540F2334202920022CDE9002213468C
:10131000FFF717FC03B000BD2DE9F04104460B4672
:101320001546DFF8788008EBC4020020002600276D
:1013300000212EE0002600274FF0FF0C0CFA01FCE4
:101340001CEA030F23D0002017E023FA00FC4FF023
:10135000010808FA01F81CEA080F0DD04FEA8008CE
:101360004FF00F0C0CFA08FC4CEA06064FEA800C12
:1013700005FA0CFC4CEA0707401C0828E5D3D2F814
:1013800000C02CEA060C4CEA070CC2F800C0121D83
:1013900008310829CEDDBDE8F081000020200240A0
:1013A00010B50021C32002F0F7F85A21C92002F03D
:1013B000F3F84BF67E11012002F0EEF84FF604012F
:1013C000032002F0E9F843F22741312002F0E4F86B
:1013D0004FF47F416D2002F0DFF840F6B8516E20E7
:1013E00002F0DAF84DF2DA116F2002F0D5F80021A0
:1013F000162002F0D1F8054801681E2002F0CCF852
:101400000121C92002F0C8F810BD00003000002002
:1014100010B501F031FBFFF7C3FF00F001F810BD7C
:101420002DE9FC5F0D2000F05DFA8046FFF7D1F951
:101430000546FE4841682846FFF703F80446FFF7D3
:1014400013FA06460022FA4BFFF754F9F94A03C291
:10145000102000F047FA8046FFF7BBF90446F34836
:1014600001692046FEF7EDFF0546FFF7FDF9064648
:101470000022F14BFFF73EF9EE4AC2E90601EB49C3
:101480000868FFF7B4F9804642460B46EB48EC4942
:10149000FFF730F982460022EA4BFFF72BF90446AA
:1014A0000D46012000F01EFA8046FFF7A0F906461F
:1014B00022462B46FFF7ACF8DE4AC2E90C01DB49B5
:1014C0000868FFF794F9804642460B46DB48DC4942
:1014D000FFF710F982460022DA4BFFF70BF90446BA
:1014E0000D46052000F0FEF98046FFF780F906461C
:1014F00022462B46FFF78CF8CE4AC2E9140114208D
:1015000000F0F0F90646FFF772F904460022CE4BD0
:10151000FFF7F0F8C74A903203C21E2000F0D2F95C
:10152000C449C1F8B800222000F0CCF9C149C1F883
:10153000C8000E2000F0D6F98046FFF74AF90546AC
:10154000BA4881682846FEF77CFF0446FFF78CF90D
:1015500006460022B64BFFF7CDF8B64AC2E90201B3
:10156000112000F0BFF98046FFF733F90546AF4878
:1015700041692846FEF765FF0446FFF775F9064600
:101580000022AD4BFFF7B6F8AA4AC2E90801A74905
:101590000868FFF72CF9064632460B46A748A849CB
:1015A000FFF7A8F882460022A64BFFF7A3F80446EF
:1015B0000D46022000F096F90646FFF718F980461E
:1015C00022462B46FFF724F89A4AC2E90E019749B2
:1015D0000868FFF70CF9804642460B469748984941
:1015E000FFF788F882460022964BFFF783F80446FF
:1015F0000D46062000F076F98046FFF7F8F806461B
:1016000022462B46FFF704F88A4AC2E91601152044
:1016100000F068F90646FFF7EAF8044600228A4B14
:10162000FFF768F8834A9032C2E902011F2000F0F8
:1016300049F98049C1F8BC00232000F043F97D49F5
:10164000C1F8CC000F2000F04DF98046FFF7C1F83B
:1016500005467648C1682846FEF7F3FE0446FFF7C4
:1016600003F906460022724BFFF744F8714AC2E9BB
:101670000401122000F036F98046FFF7AAF805466B
:101680006A4881692846FEF7DCFE0446FFF7ECF85D
:1016900006460022684BFFF72DF8664AC2E90A01A8
:1016A00062490868FFF7A3F8064632460B466348CE
:1016B0006349FFF71FF880460022624BFFF71AF8D4
:1016C00004460D46032000F00DF90646FFF78FF89B
:1016D000824622462B46FEF79BFF564AC2E910017E
:1016E00052490868FFF783F8824652460B46534832
:1016F0005349FEF7FFFF06460022524BFEF7FAFF62
:1017000004460D46072000F0EDF80646FFF76FF897
:10171000804622462B46FEF77BFF464AC2E9180167
:10172000162000F0DFF80646FFF761F804460022B5
:10173000454BFEF7DFFF3F4A9032C2E9040120200B
:1017400000F0C0F83B49C1F8C000242000F0BAF80E
:101750003849C1F8D0001C2000F0C4F80646FFF755
:1017600046F804460022394BFEF7C4FF314AB03236
:1017700003C22E490868FFF73AF8064632460B4680
:101780002E482F49FEF7B6FF044600222D4BFEF7E8
:10179000B1FF80468946042000F0A4F80446FFF714
:1017A00026F8824642464B46FEF732FF00224FF0B3
:1017B0008043CDE90001FEF72BFF1E4AC2E912016A
:1017C0001A490868FFF713F8064632460B461B48CD
:1017D0001B49FEF78FFF044600221A4BFEF78AFFD3
:1017E00080468946082000F07DF80446FEF7FFFF9A
:1017F000824642464B46FEF70BFF00224FF08043E5
:10180000CDE90001FEF704FF0A4AC2E91A011720D8
:1018100000F068F80646FEF7EAFF044600220A4B8D
:10182000FEF768FF034A903212E00000300000200B
:101830000000C040000500200000B0406519E258DB
:10184000373CA8400000A9400000604100FFBF40B5
:10185000C2E90601212000F035F81449C1F8C4009E
:10186000252000F02FF81149C1F8D4000846D0E92E
:1018700000100F4AC2E900100C48D0E906100D4ACA
:10188000C2E900100949D1E90C010B4A03C207491A
:10189000D1F8C400FEF7BCFF04460022074BFEF758
:1018A00029FF074A03C2BDE8FC9F00000005002095
:1018B0001000002018000020200000200000A94097
:1018C0002800002070B50546284600F021F804469F
:1018D0002D2000F01DF8A04202D04FF0FF3070BD67
:1018E0002046FCE770B50546284600F011F804468E
:1018F0002D2000F00DF8A04202D04FF0FF3070BD57
:1019000014F4000F01D0C4F180742046F7E7000002
:1019100070B50546002440200E49886205F07F001E
:1019200001F008F9022001F09DFA002001F002F90F
:1019300040EA0424002001F0FDF840EA04240020DD
:1019400001F0F8F840EA04244020024948622046A9
:1019500070BD000000200B4010B501460A46C817B4
:1019600001EB10700011A1EB00100B46CC1701EB3E
:101970001474241104EB840400EB4400C0B210BDC5
:1019800010B5104800F0A2F80F480068401C0E493E
:1019900008600E480068401C0C4908600C4800684C
:1019A000401C0B4908600B480068401C094908604E
:1019B000962002F0CFFC052002F082FB062002F008
:1019C000CBFB10BD00600740B8000020BC00002029
:1019D000C0000020B40000202DE9FE43002000904C
:1019E00001900290029820F4803000F5803002903F
:1019F00001239DE8070000F009F93049304800F064
:101A00008DF800212E4800F08BF801212C4800F0C1
:101A10006FF800212A4800F076F80121284800F0EC
:101A20005CF8292000F01F020121914042094FF08B
:101A3000E02303EB8202C2F8001100BF052202245A
:101A400000251346C3F1070CBCF1040F02D94FF077
:101A5000040C01E0C3F1070C674603F1040CBCF170
:101A6000070F02D24FF0000C01E0A3F1030C664611
:101A70004FF0010C0CFA07FCACF1010C0CEA040C61
:101A80000CFA06FC4FF0010808FA06F8A8F1010864
:101A900008EA05084CEA080100BF002807DA0A072F
:101AA000140E084A00F00F031B1FD45403E00A076A
:101AB000130E054A135400BFBDE8FE8300DD6D0020
:101AC0000060074018ED00E000E400E0416821F00C
:101AD00001014160BFF34F8F704721B1026842F0AE
:101AE0000402026003E0026822F004020260704710
:101AF00021B1026842F00102026003E0026822F0B4
:101B000001020260704721B1026842F002020260E5
:101B100003E0026822F0020202607047C160704771
:101B20008160704700BFFEE7F0B504461B48406B7C
:101B3000032101EA907700F035F82060012F04D0EE
:101B4000022F05D0032F09D105E02068606008E06E
:101B50001348606005E01248606002E000206060A9
:101B600000BF00BF0D496068096AC840A0600B480B
:101B70000068C0F30156A068F040E0600748806A42
:101B8000C0F30245072D05D10621A068B0FBF1F096
:101B9000206102E0A068E8402061F0BD00800840BC
:101BA00000127A001148006808B9002070470F48F9
:101BB000A438006A08B90E4800E00D4803460D48F5
:101BC0000068012801D11846F0E70B488069C0F38E
:101BD000C55101B9402108488069C0F34152012034
:101BE00000FA02F2B3FBF2F04843DFE7A40010432F
:101BF00000127A00FC0310430080084000B585B055
:101C00006846FFF791FF039805B000BD1FB50B4C68
:101C1000606AE16A226B009CA043019CA143029C84
:101C2000A2432BB1009C2043019C2143029C2243F0
:101C3000024C6062E16222631FBD00000080084028
:101C40002DE9F0474FF0000AD146002400BF00F014
:101C5000CDF8CC2000F0DEF8442000F0DBF84FF4A3
:101C6000487001F0EFF800F0C1F8CC2000F0D2F895
:101C7000BE2000F0CFF800F08FF8824600F08CF81C
:101C800081464C460AEB042084B204F47840B0F557
:101C9000784F0ED1E04384B2601C84B22046FEF738
:101CA000B7FD074600220A4BFEF7B2FC05460E467A
:101CB00009E02046FEF7ACFD07460022054BFEF783
:101CC000A7FC05460E4628463146BDE8F0870000D1
:101CD0000000B0BF0000B03F0EB5002000900190A2
:101CE0000290009820F4803000F580300090019838
:101CF00020F4804000F580400190029820F04000E0
:101D00004030029001239DE80700FFF77FFF00F0BD
:101D100073FE08B100BFFEE7002202211046FFF764
:101D2000FBFA00220221044800F0D6F90122022128
:101D3000014800F0DAF90EBD00000B400EB500209E
:101D4000009001900290009820F4803000F58030DF
:101D50000090019820F4804000F5804001900298A6
:101D600020F040004030029001239DE80700FFF77B
:101D70004DFF00F041FE08B100BFFEE70022022146
:101D80001046FFF7C9FA01220221024800F0A4F927
:101D90000EBD000000000B4070B50025002400BF00
:101DA0001DE06410FFF7CAFF02200F49886204207B
:101DB00001F058F802200C4948620A2001F052F85C
:101DC000FFF78AFF0221084800F0B0F9012801D18D
:101DD00044F080042D2001F045F8681CC5B2082DA0
:101DE000DFDB204670BD000000000B4010B5FFF7A0
:101DF000A5FF0220064988624FF4F07001F032F826
:101E00000220034948624FF4F07001F02BF810BD36
:101E100000000B4070B504460025FFF78FFF00BFA0
:101E200018E002200D4988620F2001F01BF814F021
:101E3000010F03D002200949486202E0022007494D
:101E400088623C2001F00EF80220044948626410C8
:101E5000681CC5B2082DE4DB70BD000000000B401B
:101E60002DE9F041FFF7ECFE0446FEF710FD2C498A
:101E700008604FF082412A480068FEF7A6FA06463D
:101E8000FEF7F2FC044622460B4626A001F0A0FB1A
:101E9000FFF7C6FA29482A490CC803C9FEF711FB07
:101EA000284A03C228480CC828A001F091FB2B48FF
:101EB0000CC82BA001F08CFB2D480CC82DA001F004
:101EC00087FB20480CC830A001F082FB02F0C8F864
:101ED0001C4831A10CC8344801F08AFB324800F09C
:101EE00055F9FF2000F02CF916480CC800202F49A6
:101EF000FEF78EFB0446FEF7CAFC2D4908602D480C
:101F00000068FEF7B1FC064600222B4BFEF780FB73
:101F10000446FEF7BCFC29490860BDE8F0810000DA
:101F2000700000200A54656D706572617475726589
:101F30003D25302E326C66A1E60A000060000020CC
:101F4000280000206800002010000020B5E7D1B96B
:101F5000A3BA25302E31663B0A000000180000208D
:101F6000B5E7C1F7A3BA25302E33663B0A0000005F
:101F700020000020D3D0B9A6B9A6C2CAA3BA253082
:101F80002E33663B0A000000B5E7C4DCA3BA253057
:101F90002E33663B0A0000007765706F20222530E3
:101FA0002E3266222C383000D80000200000E03F9E
:101FB0007C0000205400002000000240800000202F
:101FC0007047000010B56FF0040000F01BFE0748DA
:101FD0000068C0084FF47A71B0FBF1F4204600F0BD
:101FE00052FE012000F03CFE10BD0000EC0000207D
:101FF00010B54FF47A7217A117A000F0E1FE4FF46C
:102000007A7214A116A000F0DBFE4FF47A7211A1CF
:1020100017A000F0D5FE4FF47A720EA117A000F0C1
:10202000CFFE4FF47A720BA1174800F0C9FE4FF4AF
:102030007A7208A115A000F0C3FE4FF47A7205A1D0
:102040001CA000F0BDFE4FF47A721EA11EA000F08D
:10205000B7FE10BD4F4B000041540D0A00000000B8
:1020600041542B43574D4F44453D330D0A0000006A
:1020700041542B5253540D0A0000000041542B438D
:10208000494653520D0A0000981D002041542B432D
:10209000495053544152543D22544350222C223132
:1020A00038332E3233302E34302E3333222C383026
:1020B0000D0A000041542B4349504D4F44453D31DA
:1020C0000D0A00003E00000041542B434950534587
:1020D0004E440D0A000000001AB103680B43036070
:1020E00002E003688B43036070471AB143680B43F7
:1020F000436002E043688B434360704732B98368B2
:102100000B438360C3688B43C3600EE0012A06D192
:10211000C3680B43C36083688B43836005E08368B7
:102120008B438360C3688B43C36070470246D369A7
:102130000B4201D0012000E000207047416270474F
:1021400070B5044600250FE05CB12146084801F057
:102150008DF900BF4021064801F048F90028F9D068
:1021600000E070BD681CC5B2032DEDDB00BFF8E7D1
:102170000010044010B5C82001F0DEFEFF20FFF77C
:10218000DFFFC82001F0D8FE10BD000070B5044686
:10219000002510E0605D68B1615D074801F066F9F7
:1021A00000BF4021044801F021F90028F9D0681C43
:1021B000C5B200E070BDEDE70010044010B540214D
:1021C0002948FDF7EAFF29A0FFF7E0FFFF20FFF70E
:1021D000B7FF642001F0B0FE2748007800280BDD2F
:1021E000264A27A1284801F003FA00202249087056
:1021F00020212248FDF7D1FF642001F09DFE23A09D
:10220000FFF7C4FFFF20FFF79BFF642001F094FE5F
:102210001948007800280BDD184A19A11E4801F062
:10222000E7F900201449087020211448FDF7B5FF94
:10223000642001F081FE19A10B48FDF7B9FF124996
:102240000948FDF7B5FF18A10748FDF7B1FF12498E
:102250000548FDF7ADFF15A10348FDF7A9FF642070
:1022600001F06AFE10BD0000981D002072657074B8
:1022700020302C3230000000DE000020381D00200D
:102280002225732200000000581D00207265707422
:102290002035302C32300000781D002041542B4373
:1022A000574A41503D0000002C0000000D0A00007C
:1022B0002DE9F04104460F4615461E4600202070C9
:1022C00016A12046FDF774FF29462046FDF770FF52
:1022D00016A12046FDF76CFF31462046FDF768FF4A
:1022E00016A12046FDF764FF17A12046FDF760FF09
:1022F00039462046FDF75CFF16A12046FDF758FF42
:1023000015A12046FDF754FF19A12046FDF750FF07
:102310002046FDF777FFBDE8F081000047455420D7
:102320002F646576696365732F0000002F64617404
:102330006173747265616D732F00000020485454FE
:10234000502F312E310D0A006170692D6B65793A7D
:10235000200000000D0A0000486F73743A61706934
:102360002E6865636C6F7564732E636F6D0D0A0064
:10237000436F6E6E656374696F6E3A636C6F7365FD
:102380000D0A0D0A000000002DE9F0439DB004463F
:102390000F4615461E46DDF89080642104A8FDF71F
:1023A000FCFE0020019002900390207043463246CC
:1023B0001FA104A801F01CF904A8FDF723FF814622
:1023C0004A461DA101A801F013F91CA12046FDF702
:1023D000EFFE29462046FDF7EBFE1CA12046FDF747
:1023E000E7FE22A12046FDF7E3FE39462046FDF731
:1023F000DFFE21A12046FDF7DBFE20A12046FDF7F0
:10240000D7FE24A12046FDF7D3FE01A92046FDF703
:10241000CFFE24A12046FDF7CBFE04A92046FDF700
:10242000C7FE2046FDF7EEFE1DB0BDE8F0830000BC
:102430002C3B25732C25730025640000504F53540A
:10244000202F646576696365732F00002F646174C3
:1024500061706F696E74733F747970653D352048A3
:102460005454502F312E310D0A0000006170692D37
:102470006B65793A000000000D0A0000486F737424
:102480003A6170692E6865636C6F7564732E636F53
:102490006D0D0A00436F6E74656E742D4C656E672A
:1024A00074683A000D0A0D0A0000000000BFFEE744
:1024B0000EB50020009001900290009820F480302A
:1024C00000F580300090009820F4802000F58020F6
:1024D0000090009820F4002000F500200090009863
:1024E00020F4003000F500300090019820F4804086
:1024F00000F580400190029820F0400040300290AA
:1025000001239DE80700FFF781FB00F075FA08B191
:1025100000BFFEE7002210210220FEF7FDFE002290
:1025200020210220FEF7F8FE012210210E48FFF7BD
:10253000D3FD012220210C48FFF7CEFD012202210C
:102540001046FEF7E9FE002202210848FFF7C4FD0D
:10255000012202210548FFF7C8FD0022022103489D
:10256000FFF7CCFD0EBD000000400B4000200B40EB
:1025700000BFFEE7704710B50021084600F05AF88A
:1025800010BD000000F01F0201219140024A4309E2
:1025900042F823107047000080E100E000F01F02C5
:1025A0000121914042094FF0E02303EB8202C2F87F
:1025B0000011704700F01F020121914042094FF0C5
:1025C000E02303EB8202C2F800117047F0B5034626
:1025D0000C4603F00701C1F10700042801D90420CB
:1025E00001E0C1F107000646081D072801D20020BE
:1025F00000E0C81E05460120B040401E2040A84013
:102600000127AF407F1E17403843F0BD10B50028AA
:1026100007DA0A07140E054A00F00F031B1FD454F3
:1026200003E00A07130E024A135410BD18ED00E030
:1026300000E400E0024A0A400243024B1A6070477D
:1026400080FFFF1F08ED00E070B5E6B004460D46C0
:1026500023460BA20CA102A80095FFF795FE0646A3
:10266000F2B202A9104800F0F9FC02A90FA000F094
:10267000AFFF14A000F0ACFF012066B070BD0000F9
:1026800035303636333535006577674C6646514907
:10269000596D4746494150415A5A59314F37784E42
:1026A0005449773D000000000010004073656E64DF
:1026B0002048545450206D73673A0D0A25730D0A53
:1026C000000000000D0A00002DE9FE43044600262C
:1026D0000020374908604FF480613648FDF75DFD02
:1026E000234635A236A13E48FFF7E2FD0546EAB291
:1026F0003B493C4800F0B2FC4FF4967000F0A2FB5E
:102700002B48006820B138A12A48FDF75DFD064638
:10271000002E43D0374A38A12648FDF77BFD3AA169
:102720003448FDF745FD394A33A13248FDF772FDC3
:1027300037483849384A394BCDE900210290384AA8
:1027400038A13248FDF766FD3EA13148FDF73CFD5A
:102750008146FDF757FD471E3AA12D48FDF734FD90
:1027600000F101083A4641463748FDF73FFD36493A
:1027700036A000F02DFF36A000F02AFF35A1324828
:10278000FDF722FD10B101203349087033A12E4816
:10279000FDF71AFD10B100202F4908704FF4806139
:1027A0000448FDF7FAFC2C480078BDE8FE830000E1
:1027B00008000020FC000020353036363335350067
:1027C0006577674C66465149596D474649415041C6
:1027D0005A5A59314F37784E5449773D000000001E
:1027E0005807002000100040323030204F4B0D0AB7
:1027F00000000000E8080020252A5B5E7B5D7B2549
:102800005B5E7D5D000000007D000000E80C0020A4
:10281000D806002058060020980600201806002040
:10282000D8050020255B5E2C5D2C255B5E2C5D2C85
:10283000255B5E2C5D2C255B5E2C5D2C255B5E2C68
:102840005D0000003A00000018070020257300001A
:102850000D0A0000310000004C0000203000000094
:102860002DE9FE43044600260020374908604FF456
:1028700080613648FDF791FC234635A236A13E48DB
:10288000FFF716FD0546EAB23B493C4800F0E6FB7F
:102890004FF4967000F0D6FA2B48006820B138A1AA
:1028A0002A48FDF791FC0646002E43D0374A38A14E
:1028B0002648FDF7AFFC3AA13448FDF779FC394AC8
:1028C00033A13248FDF7A6FC37483849384A394B1E
:1028D000CDE900210290384A38A13248FDF79AFC30
:1028E0003EA13148FDF770FC8146FDF78BFC471E89
:1028F0003AA12D48FDF768FC00F101083A4641462F
:102900003748FDF773FC364936A000F061FE36A06B
:1029100000F05EFE35A13248FDF756FC10B10120F3
:102920003349087033A12E48FDF74EFC10B100204A
:102930002F4908704FF480610448FDF72EFC2C48A5
:102940000078BDE8FE83000008000020FC000020A5
:1029500035303636333535006577674C6646514934
:10296000596D4746494150415A5A59314F37784E6F
:102970005449773D0000000068120020001000401C
:10298000323030204F4B0D0A00000000F8130020B9
:10299000252A5B5E7B5D7B255B5E7D5D0000000024
:1029A0007D000000F8170020E811002068110020C9
:1029B000A811002028110020E8100020255B5E2CC3
:1029C0005D2C255B5E2C5D2C255B5E2C5D2C255BD8
:1029D0005E2C5D2C255B5E2C5D0000003A00000043
:1029E00028120020257300000D0A000031000000AD
:1029F0004D00002030000000114A012011490860FC
:102A000019E011480068272814D1104800686FEABF
:102A100000010F48D0F8243205E00C48016000683E
:102A2000884200D100E0F8E700BF084803604FF09B
:102A30000000704700BF501E0200E2D10120F8E7FD
:102A4000005125020083084008A1064024A2064048
:102A500000A00640704710B50446E1B24FF0804038
:102A600000F004FD00BF4021080600F0BFFC002874
:102A7000F9D0204610BD000000B58FB000200190B5
:102A800002900390029820F02000203002900298DB
:102A900020F4804000F580400290019820F400303E
:102AA00000F500300190012301A807C8FFF7AEF838
:102AB0001E4948684021FFF741FB1C490122486834
:102AC0004021FFF709FB052280210120FEF724FCAD
:102AD00005224FF480710120FEF71EFC05224FF401
:102AE00000710120FEF718FC4FF480400490002094
:102AF0000590082006900020079008900B90099000
:102B000001200A9000200C900D9001200E9004A945
:102B1000074800F03FF80121054800F065F8012161
:102B2000034800F021F80FB000BD00002045000070
:102B30000040044010B5044600BF0121094800F0E0
:102B40001EF80028F9D02146064800F058F800BFCA
:102B50000421044800F013F80028F9D0014800F0DF
:102B60003FF810BD0040044021B1026842F001026C
:102B7000026003E0026822F001020260704710B5B3
:102B800002460020002353690B4201D0012000E0DF
:102B9000002010BD10B54A692AB90C7E4FF480732D
:102BA000A3401A4304E00C7E4FF4007323411A4300
:102BB0008C680B682343CC6823430C692343CC699E
:102BC0002343134343604C6A4B6823430C6A43EA34
:102BD0000413836101248B6AC4EB5303C36010BDEB
:102BE0000146086980B2704721B1026842F00802CC
:102BF000026003E0026822F008020260704701618F
:102C000070477047042808D14FF0E021096941F06E
:102C100004014FF0E022116107E04FF0E021096963
:102C200021F004014FF0E0221161704720B900212A
:102C30004FF0E022916112E0012808D14FF0E0212D
:102C4000096941F001014FF0E022116107E04FF006
:102C5000E021096921F001014FF0E0221161704784
:102C600040B14FF0E021096941F002014FF0E0224C
:102C7000116107E04FF0E021096921F002014FF0F6
:102C8000E022116170474FF0E02148617047000079
:102C90002DE9FF5F04460026B146032514E004F148
:102CA0000F00465D3046FEF757FE8246FDF79AFD5F
:102CB000074635494846FDF78EFB80463946FDF705
:102CC00032FB8146681E45B2002DE8DA4846FDF722
:102CD000CBFD07462D4A2E4BFDF79AFC8246FDF7A9
:102CE000D6FD8146E67C2A2E17D02B2E08D02C2E1E
:102CF00020D14FF07E514846FDF76DFB81461AE02A
:102D00004846FDF7B1FD8246224A234BFDF780FC81
:102D10000746FDF7BCFD81460DE04846FDF7A4FDE2
:102D200007461A4A1A4BFDF773FC8246FDF7AFFDC2
:102D3000814600E000BF00BF4846FDF795FD07460D
:102D4000124A164BFDF7BDFB82460022144BFDF7DD
:102D50005FFCCDE90001FDF768FD0290FDF739FD4C
:102D600009490390FDF76DFB81464846FDF77CFD60
:102D700007463A460B460BA000F02AFC0F48C0F865
:102D80000090BDE8FF9F00000000C8427B14AE47E2
:102D9000E17A843F9A9999999999B93FE17A743F78
:102DA000000059400AB5B1C7B0C0DBBCC6C1F7C10D
:102DB000BFA3BA252E326620B6D60A0054000020E2
:102DC000F8B504460E46154625E000201349086074
:102DD0004FF480611248FDF7E0F92046FDF712FA42
:102DE000C7B23A4621460F4800F038F9A8B200F0C1
:102DF00029F80B4823464FF49C720B4900900BA016
:102E000000F0E6FB31460648FDF7DEF900B103E0CD
:102E1000642000F017F8D8E700BFF8BD08000020D4
:102E2000FC000020001000401845000025732025FC
:102E30006420636D643A25732C7273703A25730AAB
:102E400000000000002107E042F6E06100BF0A0038
:102E5000A1F1010399B2FAD10200A0F1010398B2E5
:102E6000F2D17047002106E00A2100BF0A00A1F15B
:102E7000010399B2FAD10200A0F10100F4D1704728
:102E800010B5FFF79FF84FF4E13000F0C7F94FF4A9
:102E9000E13000F081F84FF4166000F019FA4FF4B9
:102EA000165000F05BF9FFF765F901F063F8FFF7E2
:102EB00085F9FEF7ADFA10BD0448006820B103485B
:102EC0000068401E014908607047000004000020AF
:102ED00001201C4908601C49C1F8A80000BF1B481C
:102EE00000680028FBD04FF00000174908624FF03F
:102EF0001060174988614FF001001649086000BF53
:102F0000154800680028FBD01448006820F007002E
:102F100000F103001249C1F800024FF001000C4912
:102F200008620846406820F0030000F10100486094
:102F300000BF0748406B4FF0030101EA9070012881
:102F4000F7D1704700830840000010430801104388
:102F500000800840A4001043040110430002084010
:102F60000000084010B50948806800F004000428FB
:102F70000AD1064800F06BFAC1B205480468601C2B
:102F8000034A10600348015510BD000000100040C6
:102F900008000020FC00002030B587B00546002066
:102FA000049005900690059820F4804000F580403C
:102FB0000590059820F4806000F5806005900498E5
:102FC00020F4802000F580200490012304A807C885
:102FD000FEF71CFE062211020220FEF79DF94FF4B7
:102FE000E13001900120ADF808000020ADF80A00A2
:102FF000ADF80C00ADF80E0001A9174800F0FEF97D
:103000000621154800F0EEF90021134800F030FACF
:103010000121114800F032FA00210F4800F011FAA6
:10302000012211460C4800F003FAA8200A49086260
:103030000121094800F00FFA3120FFF7AFFA002212
:1030400011460520FFF7C2FA044621463120FFF75A
:10305000DDFA07B030BD0000001000402DE9F0415E
:1030600007460C46154600260DE014F8011B0848DB
:1030700000F0FCF900BF4021054800F0B7F9002836
:10308000F9D0701CC6B2AE42EFDBBDE8F0810000A3
:103090000010004010B52948806800F004000428A2
:1030A00010D1264800F0D3F9C1B225480278007843
:1030B000401C234B187023488154204800F0C7F966
:1030C0002149087020480078062834D2DFE800F053
:1030D00033030E19242F01201C4908701C48007866
:1030E000012802D120201B49886225E000201749D1
:1030F000087017480078012802D12020154948623D
:103100001AE001201449087011480078012802D102
:103110001020104988620FE000200F4908700C4809
:103120000078012802D110200A49486204E00120F9
:103130000749087000E000BF00BF10BD0010044048
:10314000DE000020381D0020DD000020DF00002010
:103150000000002000400B40E000002030B587B0A8
:1031600004460020049005900690059820F48040C5
:1031700000F580400590059820F4006000F500609F
:103180000590049820F4003000F5003004900123ED
:1031900004A807C8FEF73AFD062230210120FEF7F9
:1031A000BBF801940120ADF808000020ADF80A003A
:1031B000ADF80C00ADF80E0001A9174800F01EF99B
:1031C0000621154800F00EF90021134800F050F9CF
:1031D0000121114800F052F900210F4800F031F9A7
:1031E000012211460C4800F023F9A8200A49086280
:1031F0000121094800F02FF93220FFF7CFF9012211
:1032000000210520FFF7E2F9054629463220FFF7A5
:10321000FDF907B030BD00000010044010B586B0C5
:1032200004460020039004900590049820F4804008
:1032300000F580400490049820F4807000F58070C0
:103240000490039820F4803000F58030039001232F
:1032500003A807C8FEF7DAFC06220C210020FEF7BF
:103260005BF84FF4E13000900120ADF8040000203D
:10327000ADF80600ADF80800ADF80A0069464FF059
:10328000804000F0BBF80121880700F0F7F8012129
:10329000880700F0E0F806B010BD000010B509483E
:1032A000806800F0040004280BD1064800F0CFF835
:1032B000C1B2054802780078401C034B18700348DF
:1032C000815410BD0000044050000020F81B002075
:1032D00030B587B00546002004900590069005980B
:1032E00020F4804000F580400590059820F400709F
:1032F00000F500700590049820F4803000F58030CF
:103300000490012304A807C8FEF780FC0022402196
:103310001046FEF701F8012240212248FEF7DCFEAC
:10332000062230210020FDF7F7FF4FF416600190D0
:103330000120ADF808000020ADF80A00ADF80C003F
:10334000ADF80E0001A9184800F058F806211648FB
:1033500000F048F80021144800F08AF801211248D2
:1033600000F08CF80021104800F06BF801221146A3
:103370000D4800F05DF8A8200B49086201210A48B9
:1033800000F069F83020FFF709F901221146052005
:10339000FFF71CF9044621463020FFF737F907B044
:1033A00030BD000000000B40000004402DE9F0415A
:1033B00007460C46154600260DE014F8011B084888
:1033C00000F054F800BF4021054800F00FF8002835
:1033D000F9D0701CC6B2AE42EFDBBDE8F081000050
:1033E00000000440C2680A43C26070470246906908
:1033F000084201D0012070470020FCE770B5044668
:103400000D46206920F01F00E9880843A988084379
:10341000298908432061606A20F003006989084314
:103420006062FEF7EBFB2968B0FBF1F0A06370BDB2
:103430001AB143680B43436002E043688B43436027
:103440007047C26822F0C0020A43C260704701465A
:10345000086880B2704721B1C26842F40072C2604D
:1034600003E0C26822F40072C260704701607047D6
:10347000C26822F030020A43C260704721B1C268BC
:1034800042F48072C26003E0C26822F48072C260BB
:10349000704700BFFEE7000070B53B4C0025FE22E0
:1034A00029466D1C625429466D1C625429466D1CC8
:1034B000625429466D1C625429466D1C625429468B
:1034C0006D1C6254682229466D1C625410222846E5
:1034D000691CCDB2225487222846691CCDB22254E1
:1034E00001222846691CCDB2225420222846691C9C
:1034F000CDB2225430222846691CCDB2225401227A
:103500002846691CCDB2225400222846691CCDB23F
:1035100022542846691CCDB2225401222846691C37
:10352000CDB2225403222846691CCDB222549022E7
:103530002846691CCDB222541F222846691CCDB2F0
:10354000225401222846691CCDB222540522284665
:10355000691CCDB2225416222846691CCDB22254D1
:1035600040200A4948622A4621460948FFF71EFFC3
:103570004020064988620020064908704FF4967082
:10358000FFF760FC70BD0000C01C002000000B4075
:10359000000004405000002070B505460C46402055
:1035A0000A49886245F08000FFF7C4FAC4F3074077
:1035B000FFF7C0FAC4F30720FFF7BCFAE0B2FFF749
:1035C000B9FA40200149486270BD000000200B405C
:1035D0000FB4054B10B503A9044A029800F0EEF8A9
:1035E00010BC5DF814FB0000653F0000F0000020F7
:1035F0000FB4084B10B504A902AA039800F0DEF836
:10360000044602A9002000F07CFC204610BC5DF8B6
:1036100014FB0000033F00000148006870470000F1
:10362000F800002002E008C8121F08C1002AFAD1E1
:1036300070477047002001E001C1121F002AFBD132
:10364000704700000149086070470000F800002042
:103650002DE9FF5FDDE90220010DDDF838B00243FE
:1036600010D10F9801244CA2012808D00021009805
:103670000F9BC0E90021C0E90243BDE8FF9F6FEA4C
:103680000B01F4E7A1F2FF3144F6105041430D1451
:103690000F9801280ED0A5EB0B00401C4FF0000442
:1036A0003E4EDFF8FC90B0F1000AA04605DACAF100
:1036B000000717E0CBF10000F0E7074612E0F8073B
:1036C00007D02246334640464946FCF7A1FF8046D4
:1036D00089462246334610461946FCF799FF0446B0
:1036E0000E467F10002FEAD1DDE90201BAF1000F8A
:1036F00042464B4602DAFCF78BFF01E0FCF7FAFF8B
:1037000004460E460022274BFDF786FA03D84FF0F9
:10371000FF30014607E00022234B20463146FCF7EC
:10372000D0FEFDF760FA102409E0002C0ADB0A2223
:103730000023FDF7DEF8019B30321A55641E50EA73
:103740000102F2D1641C019AC4F1110314440F9ACE
:10375000012A09D00122084301D15B450FDD4FF05A
:10376000000205F101050DE0084303D1A3EB0B05B1
:103770006D1E09E000204FF0110B0F9088E701DA71
:1037800000226D1E002A83D000980F99C0E90231F3
:10379000C0E9004571E7000030000000000024404F
:1037A0000000F03F0000F0430000E03F30380A28FE
:1037B00001D2012070470020704700002DE9FF4F23
:1037C00095B09B4689460646002512E2252878D109
:1037D0000024761CF94A2746012105943378203BC2
:1037E00001FA03F0104202D00443761CF6E7307869
:1037F0002A2811D06FF02F033078A0F13002092A67
:1038000016D8059A44F0020402EB820203EB42024E
:103810001044761C0590EFE759F8042B0592002A16
:1038200003DA504244F40054059044F00204761C3C
:1038300030782E2816D116F8010F44F004042A28F7
:103840000DD06FF02F023078A0F13003092B09D88A
:1038500007EB870302EB4303C718761CF3E759F81D
:10386000047B761C30786C280FD006DC4C2817D0EF
:1038700068280DD06A2814D104E0742810D07A2862
:103880000FD10DE044F400140AE044F4801401E088
:1038900044F440147278824202D1761C04F58014FC
:1038A000761C307866280BD013DC582877D009DCDA
:1038B000002875D04528F6D04628F4D047281AD1DC
:1038C0009FE118E0632835D0642879D0652812D1AB
:1038D00097E1702873D008DC6728F1D069286FD091
:1038E0006E280DD06F2806D1B5E073282CD075282E
:1038F00075D0782874D05A46179990476D1C76E198
:10390000C4F30250022809D003280DD0D9F80010C2
:1039100004280DD00D6009F1040968E1D9F8001000
:10392000EA17C1E90052F6E7D9F800100D80F2E776
:103930000D70F0E719F8041B8DF8001000208DF8C9
:103940000100EA46012003E059F804AB4FF0FF30D4
:1039500061074FF0000102D40DE008F10101884633
:10396000B9420FDA8045F8DB1AF808100029F4D1C3
:1039700008E008F1010188468142FADB1AF80810D4
:103980000029F6D105985B46A0EB0807214638468A
:10399000179A00F09EFA284400EB080507E04DE076
:1039A0002BE10DE01AF8010B5A4617999047B8F130
:1039B0000108F7D25B4621463846179A14E142E0E7
:1039C0000A220092C4F302524FF0000A022A08D0E1
:1039D00059F804CB032A4FEAEC710AD00DE029E034
:1039E0002AE009F1070121F00702F2E802C191463D
:1039F00009E00FFA8CFC4FEAEC71042A03D14FFA6C
:103A00008CFC4FEAEC71002907DA0A460021DCF150
:103A1000000C61EB02012D2202E0220504D52B22CD
:103A20008DF80420012203E0E20701D02022F7E70D
:103A3000904653E00A2102E010220DE010214FF0E1
:103A4000000A00910BE010224FF0000A44F0040439
:103A50000827009203E008224FF0000A0092C4F306
:103A60000252022A05D059F804CB0021032A08D0BB
:103A700009E009F1070121F00702F2E802C19146CD
:103A800005E01FFA8CFC042A01D10CF0FF0C4FF06A
:103A90000008220722D5702827D0009B83F010034E
:103AA00053EA0A0309D15CEA010206D030228DF8FC
:103AB00004208DF8050002229046009B83F0080345
:103AC00053EA0A030AD15CEA010201D1620705D573
:103AD00030228DF804204FF001087F1E582809D0AD
:103AE00037A003900EA8029013E040228DF8042026
:103AF0000122E1E737A0F4E753466046009AFCF75D
:103B0000F8FE84460398825C0298A0F101000290BE
:103B100002705CEA0100EFD1029806A9A1EB000057
:103B200000F1200A600702D524F4803400E0012768
:103B3000574502DDA7EB0A0000E0002000EB0A0178
:103B4000009005984144A0EB01000590E00306D4E5
:103B50005B462146179A059800F0BBF905440027FB
:103B600006E001A85A46C05D179990476D1C7F1C5E
:103B70004745F6DBE0030CD55B462146179A0598CE
:103B800000F0A7F9054404E030205A461799904701
:103B90006D1C0099481E00900029F5DC08E0029891
:103BA00002995A460078491C0291179990476D1C5A
:103BB000BAF10001AAF1010AF1DC6BE10928010068
:103BC0003031323334353637383961626364656693
:103BD0000000000030313233343536373839414255
:103BE000434445460000000000F060F9054406F13A
:103BF0000106307800287FF4E9AD19B02846BDE809
:103C0000F08F620700D4062709F1070222F0070CA3
:103C1000FCE80223E14603F000485FEA080C02D00A
:103C20000FF27C2C0DE05FEA045C02D50FF2742CDD
:103C300007E05FEAC47C02D00FF26C2C01E0AFF227
:103C4000700C4FF0FF3823F00043CDF850C06528CA
:103C50000CD006DC452809D046281DD047283ED187
:103C60003EE0662818D0672839D139E00021112FAD
:103C700001DB112000E0781CCDE9000106A90EA8A7
:103C8000FFF7E6FCDDE90F010E9A03910021009297
:103C900007F1010A04914EE04FF000400097CDE992
:103CA000011006A90EA8FFF7D3FCDDE90F0203926D
:103CB0000E9B11990022DDF80CA00093049219B913
:103CC00007F1010100EB010AB7EB0A0004D4C0F1CF
:103CD000FF3007F1010A0490AAEB0700019046E0CB
:103CE000012F00DA01270021112F01DD112000E052
:103CF0003846CDE9000106A90EA8FFF7A9FCDDE9C9
:103D00000F010E9A0391002104910092BA462107F7
:103D10000CD40399514500DA8A46BAF1010F05DD4A
:103D2000009AAAF10101515C302908D0B84202DAA8
:103D300010F1040F06DA0121CDE9011017E0AAF114
:103D40000101E9E7002805DC049901440491AAEB8C
:103D5000000102E0411C514500DD8A460499A0EBB8
:103D6000010000F1010001904FF000400290200797
:103D700004D40198504501DBCDF8048000208DF873
:103D80004F0002980DF14F07B0F1004F25D02B20C6
:103D90000E9002984FF0020800280CDA4042029080
:103DA0002D200E9007E00A210298FCF78CFD30319F
:103DB000029007F8011DB8F10001A8F10108F2DC3A
:103DC00002980028EFD1791E0E980870307800F024
:103DD000200040F0450007F8020D12A8A0EB0700F4
:103DE00000F107081498007800B1012000EB0A01E7
:103DF000019801EBE07105984144A0EB0100A0F1AE
:103E000001000590E00306D45B462146179A059809
:103E100000F05FF805441498007820B15A461799CD
:103E2000904705F10105E00323D55B462146179A2B
:103E3000059800F04EF805441BE00498002807DBC5
:103E4000DDE90301884203DD0098405C179901E039
:103E5000179930205A46904704986D1C401C0490D6
:103E60000198401E019004D12E205A461799904780
:103E70006D1CBAF10001AAF1010ADEDC05E017F8B9
:103E8000010B5A46179990476D1CB8F10001A8F133
:103E90000108F4DC5B462146179A0598A4E6000069
:103EA0002D0000002B000000200000002DE9F04153
:103EB000044600251E461746880405D406E0394608
:103EC0002020B04705F10105641EF8D52846BDE85D
:103ED000F0812DE9F041044600251E469046C803B6
:103EE00001D5302700E02027880405D506E04146AB
:103EF0003846B04705F10105641EF8D52846BDE8EF
:103F0000F0810A68531C0B601070704730B583B0A5
:103F100004460020CDE90000FFF77EFB05460022A5
:103F200021466846FCF797FD2846FFF78BFBDDE945
:103F3000000103B030BD000010B504460120FEF7BB
:103F400075FE0748046000BF054800680028FBD1E3
:103F5000801EFEF76BFE0020FEF768FE10BD00001D
:103F60000400002070B504460D462046FEF773FDA0
:103F700070BD000010B540211248FCF70EF912A0E8
:103F8000FEF704F9FF20FEF7DBF86420FFF7D4FF0B
:103F900010480078002810DD0F48FFF7B7FF0F4AE0
:103FA00003C20E480CC80EA0FFF712FB00200949FF
:103FB000087020210848FCF7F0F86420FFF7BCFFE8
:103FC00010BD0000981D0020726570742038302CE0
:103FD00031300000DE000020381D0020600000208D
:103FE000B5E7C4DC3A25302E32660D0A0000000029
:103FF000FEF746FFFEF75CFAFEF7BDFAFDF7F8FFA5
:10400000FDF7EAFC0FA0FFF7E3FA6420FEF71AFFC2
:1040100016E002211048FEF789F888B90F20FFF753
:104020008BFF02210C48FEF781F848B900200B49AC
:10403000087000BF02210848FEF778F80028F9D080
:10404000E7E700004553503832363620696E697410
:10405000206F7665720D0A0000200B4000000020E2
:1040600010B5FFF719FA05480078002804DD034869
:104070000178034800F006F810BD00005000002051
:10408000F81B002070B505460E46002411E0285D9F
:10409000FE2800D00BE0601C285CFE2800D106E062
:1040A0002819FEF7F5FD00200449087000BF601CC8
:1040B000C4B2A6F10C00A042E9DC70BD50000020A3
:1040C00010B5044613480068A04221D12920FEF70C
:1040D00059FA11480078A8B910A0FEF7F5FA12496C
:1040E000086008460068012806D120200F49886230
:1040F0000FA0FFF76DFA05E020200C49486211A0DF
:10410000FFF766FA0020034908602920FEF752FAFB
:1041100010BD0000BC000020000000204143537788
:1041200069746368000000007800002000400B40C4
:104130004F70656E2041432D5377697463680D0A93
:1041400000000000436C6F73652041432D53776975
:104150007463680D0A0000002DE9F04104464148EF
:104160000068A0427BD12920FEF70CFA3E48007877
:10417000C0B93EA0FEF774FB3F49086008460068DE
:10418000012806D110203D4988623DA0FFF720FAA2
:1041900008E03948006828B91020384948623DA035
:1041A000FFF716FA4FF0824140480068FCF70DF91E
:1041B0000746FCF759FB05462A460B463CA14148F9
:1041C000FFF716FA3F48FDF7E1FFFF20FDF7B8FFC4
:1041D0003D483EA10CC84248FFF70AFA4048FDF7A7
:1041E000D5FFFF20FDF7ACFF3E483FA10CC8434878
:1041F000FFF7FEF94148FDF7C9FFFF20FDF7A0FFDB
:104200003F4840A10CC84448FFF7F2F94248FDF787
:10421000BDFFFF20FDF794FF404841A10CC8454871
:10422000FFF7E6F94348FDF7B1FFFF20FDF788FFF0
:1042300041480068FCF718FB05462A460B463FA19B
:104240004348FFF7D5F94248FDF7A0FFFF20FDF7EF
:1042500077FF0020034908602920FEF7ABF9BDE88D
:10426000F0810000C0000020000000205377697436
:1042700063687761746572007400002000400B4031
:104280004F70656E2057617465722D537769746342
:10429000680D0A00436C6F73652057617465722D59
:1042A0005377697463680D0A0000000070000020F5
:1042B00074372E7478743D2225302E326C66A1E658
:1042C00022000000C40000201000002074392E7469
:1042D00078743D2225302E326C6656220000000094
:1042E000C9000020180000207431302E7478743D0D
:1042F0002225302E326C664122000000CE000020C4
:10430000200000207431312E7478743D2225302E27
:10431000326C665722000000241D00206800002037
:104320007431322E7478743D2225302E326C664BF7
:10433000776822002E1D00205400002074382E744F
:1043400078743D2225302E326C666D3322000000D9
:10435000D30000202DE9F04104464B480068A042FC
:104360007ED12920FEF70EF93220FEF70BF94FF42B
:1043700080614648FBF711FFFDF772FD4FF0824167
:1043800043480068FCF721F80746FCF76DFA05463C
:104390002A460B463FA14148FFF72AF940480068EA
:1043A000FCF762FA05462A460B463EA13F48FFF756
:1043B0001FF93F4837A10CC83E48FFF719F93E489E
:1043C00034A10CC83D48FFF713F93D4835A10CC88E
:1043D0003C48FFF70DF93C480068FCF745FA0546F4
:1043E0002A460B462FA13948FFF702F938480068E2
:1043F000FCF73AFA05462A460B462AA13548FFF74C
:10440000F7F8264934A0FEF71FF90A20FEF71AFD37
:10441000264933A0FEF718F90A20FEF713FD2549B7
:1044200031A0FEF711F90A20FEF70CFD234930A058
:10443000FEF70AF90A20FEF705FD22492EA0FEF735
:1044400003F90A20FEF7FEFC20492EA0FEF7FCF837
:104450000A20FEF7F7FC1F492CA0FEF7F5F800E054
:1044600010E000202B4908604FF480610748FBF7FB
:1044700094FE0020044908602920FEF79BF83220B2
:10448000FEF798F8BDE8F081B8000020FC0000209D
:104490007000002025302E316600000084000020CE
:1044A0005400002025302E326600000089000020D4
:1044B000100000208E000020200000209900002025
:1044C000680000209F0000207C000020A500002044
:1044D00080000020AB00002077656E64750000004E
:1044E0007761746572000000766F6C7461676500B7
:1044F000676F6E676C7600006469616E6E656E67EB
:10450000000000006469616E666569007368756922
:10451000666569000800002053656E64436D6400A1
:1045200000000B4000200B4000400B4000600B409F
:1045300000800B400202000000020008000400009E
:10454000000204040080020004000100000F0102C8
:104550000000004000000400060000000800060003
:1045600000100040020000020600020000040600E5
:10457000DDDDDDDDDCBBBBDDDDDDDDDDDDDDDDDDB0
:1045800098888888888888887777777777888888F0
:104590008555555666666666666666666668888888
:1045A0008333333222222222222222222228888D81
:1045B000D045000000000020FC0000002436000070
:1045C000CC460000FC000020DC1E00003436000059
:1045D00000000000000000000000000000000000DB
:1045E00000000000000000000000000000000000CB
:1045F00000000000000000000000000000000000BB
:10460000DC0000008FC2D53F8FC2D53F8FC2D53F9F
:104610003333094233330942333309420101000085
:10462000000000000000000000000000000000008A
:10463000000000000000000000000000000000007A
:10464000000000000000000000000000000000006A
:10465000000000000000000000000000000000005A
:10466000000000000000000000000000000000004A
:10467000000000000000000000000000000000003A
:10468000000000000000000000000000000000002A
:10469000000000000000000000000000000000001A
:1046A000000000000000000000000000000000000A
:1046B00000000000000000000000000000A24A040A
:0C46C000000000000000000000000000EE
:0400000500000155A1
:00000001FF
